:100000000C9447010C9478010C9478010C947801BD
:100010000C9478010C9478010C9478010C9478017C
:100020000C9478010C9478010C9478010C9478016C
:100030000C9478010C9478010C9478010C9478015C
:100040000C9478010C94F2030C9478010C947801D0
:100050000C9478010C9478010C9478010C9413069C
:100060000C9478010C94DD0C0C94CD0D0C9478015B
:100070000C9478010C9478010C9478010C9478011C
:100080000C9420040C9478010C9478010C94780161
:100090000C94110D0C940C0E0C9478010C947801B6
:1000A0000C9478010C9478010C944E040C94780113
:1000B0000C9478010C9478010C9478010C947C04D5
:1000C0000C9478010C9478010C9478010C94450DF3
:1000D0000C944B0E0C9478010C94790D0C948A0EB0
:1000E0000C94780129072C071F07230763073007A3
:1000F00034073A073E07420748074C075007630793
:1001000056075A075E070C94320C0C9448070C945F
:100110005A070C943E070C9434070C9423070C9454
:1001200042070C9463070C941F070C9450070C941F
:10013000A0010C9456070C94AC0D0C94860C0C94F6
:100140005E070C943A070C94420C0C9429070C940B
:100150002C070C9444080C947B0C0C944C070C94C6
:1001600030070C945B0C0C944A0F0000090A02083B
:100170000B0C0D0706030401000000000000000046
:10018000000000000000000000000000000000006F
:1001900000000000000011100F000000000000002F
:1001A000000000000000000000000000000000004F
:1001B0000102102020080810204010204080020179
:1001C000020108040201010204081020408080405E
:1001D000201008040201800402018040201008045D
:1001E00002010804020101020408102040800102FB
:1001F00004081020408005050505070508080808C3
:10020000020202020A0A08080404040401010101AE
:1002100001010101030303030303030304070707A9
:100220000C0C0C0C0C0C0C0C02020202060606064E
:10023000060606060B0B0B0B0B0B0B0B000020002E
:100240002300260029002C002F00320000010000AE
:1002500003010601090100002200250028002B00EF
:100260002E003100340002010000050108010B01DD
:1002700000002100240027002A002D003000330058
:1002800001010000040107010A01A0014A0F112425
:100290001FBECFEFD1E2DEBFCDBF00E00CBF12E04A
:1002A000A0E0B2E0EEE2F8E200E00BBF02C007908F
:1002B0000D92AA33B107D9F725E0AAE3B2E001C055
:1002C0001D92A738B207E1F712E0CEE8D2E000E0D5
:1002D00006C022970109FE010BBF0E94FE12CA3818
:1002E000D10780E00807A9F70E94400A0C94151472
:1002F0000C94000061E089E20E94640761E086E0FE
:100300000E94640761E082E00E94640761E085E08A
:100310000E94640761E083E00E9464076AE070E085
:100320008AE392E00E94750540E051EE60E070E0E3
:1003300081E493E00E94C90E88E290E00C94B10938
:100340008AE392E00C94AA04AF92BF92CF92DF921C
:10035000EF92FF920F931F93CF93DF93CDB7DEB74A
:10036000A3970FB6F894DEBF0FBECDBF63E272E075
:10037000CE014D960E94BB0A81E493E00E94320CAC
:10038000181619060CF058C161E473E0CE0101960D
:100390000E942A08BE016F5F7F4FCE014D960E94DA
:1003A000D20ACE0101960E944D0A21E030E040E0E1
:1003B00050E0BE01635E7F4FCE0146960E94D60B91
:1003C0006AE072E0CE014D960E94A60B882349F0A8
:1003D00089E20E94D30761E0892B09F060E089E29D
:1003E00010C06EE072E0CE014D960E94A60B8823ED
:1003F00059F086E00E94D30761E0892B09F060E0A4
:1004000086E00E949D070EC162E172E0CE014D962A
:100410000E94A60B882349F082E00E94D30761E086
:10042000892B09F060E082E0ECCF66E172E0CE015A
:100430004D960E94A60B882349F085E00E94D307C1
:1004400061E0892B09F060E085E0DBCF6AE172E0D2
:10045000CE014D960E94A60B882349F083E00E94AE
:10046000D30761E0892B09F060E083E0CACF6EE139
:1004700072E0CE0146960E94A60B882309F444C080
:1004800041E050E0BE01635E7F4FCE0101960E94C5
:100490001B0CBE016F5F7F4FCE014D960E94D20AAA
:1004A000CE0101960E944D0ACE014D960E94270C66
:1004B0001F921F921F922CE32F9323EAA22EB12C9E
:1004C000C12CD12C14EBE12EF12C00E010E020E047
:1004D00030E0A9010E94F9096B017C014AE050E07B
:1004E00081E493E00E949909B6018AE392E00E94B8
:1004F000AE056FE070E080E090E00E948C060F9007
:100500000F900F900F908EC060E272E0CE01469681
:100510000E94A60B882309F485C041E050E0BE018B
:10052000635E7F4FCE0101960E941B0CBE016F5F80
:100530007F4FCE014D960E94D20ACE0101960E94B5
:100540004D0ACE014D960E94270C61307105F1F0E5
:100550006230710509F060C023E030E040E050E017
:1005600061E070E080E090E00E94DD09AB01BC0139
:100570002AE0CE0101960E940B0B26E030E040E01D
:1005800050E062E070E080E090E019C027E030E0E9
:1005900040E050E063E070E080E090E00E94DD0920
:1005A000AB01BC012AE0CE0101960E940B0B2FE0AB
:1005B00030E040E050E06AE070E080E090E00E94CF
:1005C000DD09AB01BC012AE0CE010F960E940B0BA6
:1005D000BE01615F7F4FCE0108960E94E90A62E288
:1005E00072E0CE0108960E948C0BBE016F5F7F4FB8
:1005F0000E94790BBC0181E493E00E94D208CE01F5
:1006000008960E944D0ACE010F960E944D0ACE0117
:1006100001960E944D0A06C064E272E081E493E014
:100620000E94E40868EE73E080E090E00E948C068F
:10063000CE0146960E944D0ACE014D960E944D0A6B
:10064000A3960FB6F894DEBF0FBECDBFDF91CF915A
:100650001F910F91FF90EF90DF90CF90BF90AF90E0
:100660000895CF92DF92EF92FF920F931F93CF9353
:10067000DF936C018B017A01EC01C25CDD4F888154
:1006800087FF04C0FB011182108223C02CE02C9D47
:10069000C0012D9D900D11242881AC01420F511DE8
:1006A00027FD5A9520913D0230E0421753078CF404
:1006B0002881AC01420F511D27FD5A959A01FA017C
:1006C000EE0FFF1FE20FF31FEE5BFD4F208126FDB3
:1006D00019C088818F5F88838CE08C9D90018D9DEF
:1006E000300D11248881A901480F511D87FD5A95AD
:1006F00080913D0290E048175907B4F488818C300E
:100700003CF112C02881820F911D27FD9A95FC01B2
:10071000EE0FFF1FE80FF91FEE5BFD4F808160E0D9
:100720008F730E949D07D5CFF80180819181049637
:1007300080349C4918F480E49CE904C0F80180816D
:1007400091810496F701918380838FEF888341C064
:10075000F801808191814881B901640F711D47FDC5
:100760007A95AB01FB01EE0FFF1FE40FF51FEE5B67
:10077000FD4F41815281840F951FF7019183808342
:100780008881A901480F511D87FD5A95FA01EE0F86
:10079000FF1FE40FF51FEE5BFD4F808186FF19C040
:1007A0008881280F311D87FD3A95F901EE0FFF1F53
:1007B000E20FF31FEE5BFD4F808161E08F73DF91ED
:1007C000CF911F910F91FF90EF90DF90CF900C94FD
:1007D0009D07DF91CF911F910F91FF90EF90DF90D8
:1007E000CF9008951F920F920FB60F9211240BB65F
:1007F0000F922F933F934F935F936F937F938F93BA
:100800009F93AF93BF93EF93FF9348E850E064E862
:1008100070E081E090E00E943103FF91EF91BF9181
:10082000AF919F918F917F916F915F914F913F9188
:100830002F910F900BBE0F900FBE0F901F90189529
:100840001F920F920FB60F9211240BB60F922F9397
:100850003F934F935F936F937F938F939F93AF9348
:10086000BF93EF93FF9348E950E064E970E082E0C2
:1008700090E00E943103FF91EF91BF91AF919F9162
:100880008F917F916F915F914F913F912F910F9039
:100890000BBE0F900FBE0F901F9018951F920F92D6
:1008A0000FB60F9211240BB60F922F933F934F93D5
:1008B0005F936F937F938F939F93AF93BF93EF93C8
:1008C000FF9348EA50E064EA70E083E090E00E9421
:1008D0003103FF91EF91BF91AF919F918F917F91E4
:1008E0006F915F914F913F912F910F900BBE0F90A1
:1008F0000FBE0F901F9018951F920F920FB60F9278
:1009000011240BB60F922F933F934F935F936F93E6
:100910007F938F939F93AF93BF93EF93FF9348E29F
:1009200051E064E271E080E090E00E943103FF91C9
:10093000EF91BF91AF919F918F917F916F915F9157
:100940004F913F912F910F900BBE0F900FBE0F90C4
:100950001F90189520913D022033A0F431E0320F12
:1009600030933D02FC012083822F90E0FC01EE0FCA
:10097000FF1FE80FF91FEE5BFD4F88EB9BE09283B2
:10098000818308952FEFFC0120830895DF92EF9279
:10099000FF920F931F93CF93DF93EC01D62E7A0132
:1009A00089018881803308F068C061E08D2D0E9444
:1009B00064078881A82FB0E0FD01EE0FFF1FEA0F4A
:1009C000FB1FEE5BFD4F2D2D2F739081907C922BA2
:1009D000908360E272E06E197F0977FF02C06D5F5D
:1009E0007F4F7595679575956795698340E659E0E2
:1009F000401B510B57FF02C04D5F5F4F5595479508
:100A0000559547954A836CE00E94A0129CE0899F0F
:100A1000B001112420E030E0A901460F571FFA0170
:100A2000EE0FFF1FE40FF51FEE5BFD4F908196FD6B
:100A300018C02F5F3F4F2C30310571F790E08130A7
:100A4000910521F51092800082E080938100109240
:100A5000850010928400B19A80916F00826080932B
:100A60006F00888190E0FC01EE0FFF1FE80FF91F77
:100A7000EE5BFD4F8081806480838881DF91CF9120
:100A80001F910F91FF90EF90DF90089582309105B4
:100A900069F41092900082E080939100109295008A
:100AA0001092940088BB80937100DBCF8330910556
:100AB00069F41092A00082E08093A1001092A5003A
:100AC0001092A40089BB80937200CBCF892B49F68A
:100AD0001092200182E08093210110922501109252
:100AE00024018ABB80937300BCCF20E639E040E24A
:100AF00052E00C94C604FC018081803370F5918132
:100B000028E830E0291B310997FD3395220F331F68
:100B1000220F331F621773077CF0928128E532E0C1
:100B2000291B310997FD3395220F331F220F331FE5
:100B3000621773070CF49B014FB7F89490E0FC0127
:100B4000EE0FFF1FE80FF91FEE5BFD4F225031093A
:100B5000220F331F328321834FBF08954F925F923C
:100B60006F927F92AF92BF92CF92DF92EF92FF92FD
:100B70000F931F93CF93DF93EC01603282E07807ED
:100B80000CF040C077FD06C0653B71052CF064EBAE
:100B900070E002C060E070E0898128E830E0281B46
:100BA000310987FD3395220F331F220F331F59015F
:100BB000CC24B7FCC094DC2C882777FD8095982F37
:100BC0002A8148E552E0421B510927FD5395440F05
:100BD000551F440F551F2A01662457FC6094762C3C
:100BE0007F926F925F924F9214EBE12EF12C00E016
:100BF00010E020E030E0A9010E94F9090F900F9069
:100C00000F900F90CE01DF91CF911F910F91FF9028
:100C1000EF90DF90CF90BF90AF907F906F905F90FC
:100C20004F900C947B051F920F920FB60F921124D8
:100C30002F933F938F939F93AF93BF938091D30252
:100C40009091D402A091D502B091D6023091D202F7
:100C500023E0230F2D3720F40196A11DB11D05C0FF
:100C600026E8230F0296A11DB11D2093D202809386
:100C7000D3029093D402A093D502B093D602809170
:100C8000D7029091D802A091D902B091DA020196D0
:100C9000A11DB11D8093D7029093D802A093D902D1
:100CA000B093DA02BF91AF919F918F913F912F91B5
:100CB0000F900FBE0F901F9018952FB7F89460916A
:100CC000D3027091D4028091D5029091D6022FBFA9
:100CD00008953FB7F8948091D7029091D802A091DF
:100CE000D902B091DA0226B5A89B05C02F3F19F0B2
:100CF0000196A11DB11D3FBF6627782F892F9A2F1E
:100D0000620F711D811D911D42E0660F771F881FC4
:100D1000991F4A95D1F70895CF92DF92EF92FF92F3
:100D2000CF93DF936B017C010E946906EB01C11434
:100D3000D104E104F10479F00E9469066C1B7D0B7B
:100D4000683E7340A0F381E0C81AD108E108F108B9
:100D5000C851DC4FECCFDF91CF91FF90EF90DF9047
:100D6000CF900895789484B5826084BD84B5816005
:100D700084BD85B5826085BD85B5816085BDEEE6A3
:100D8000F0E0808181608083E1E8F0E01082808182
:100D900082608083808181608083E0E8F0E08081F0
:100DA00081608083E1EBF0E0808184608083E0EB10
:100DB000F0E0808181608083E1E9F0E08081826001
:100DC0008083808181608083E0E9F0E080818160C0
:100DD0008083E1EAF0E080818260808380818160AD
:100DE0008083E0EAF0E0808181608083E1E2F1E0ED
:100DF000808182608083808181608083E0E2F1E095
:100E0000808181608083EAE7F0E080818460808374
:100E1000808182608083808181608083808180681E
:100E200080831092C100089590E0FC013197E13178
:100E3000F10508F048C0EE58FF4F0C94ED12809178
:100E400080008F7703C0809180008F7D8093800029
:100E5000089584B58F7702C084B58F7D84BD0895D1
:100E60008091B0008F7703C08091B0008F7D809318
:100E7000B0000895809190008F7707C08091900016
:100E80008F7D03C080919000877F809390000895AC
:100E90008091A0008F7707C08091A0008F7D03C054
:100EA0008091A000877F8093A00008958091200109
:100EB0008F7707C0809120018F7D03C08091200132
:100EC000877F809320010895CF93DF9390E0FC010A
:100ED000E055FE4F2491FC01EA50FE4F8491882397
:100EE00049F190E0880F991FFC01E059FD4FA59151
:100EF000B4918A5A9D4FFC01C591D4919FB761115D
:100F000008C0F8948C91209582238C938881822349
:100F10000AC0623051F4F8948C91322F30958323BB
:100F20008C938881822B888304C0F8948C91822BC7
:100F30008C939FBFDF91CF9108950F931F93CF9311
:100F4000DF931F92CDB7DEB7282F30E0F901E659C5
:100F5000FE4F8491F901E055FE4F1491F901EA50DA
:100F6000FE4F04910023C9F0882321F069830E9479
:100F700014076981E02FF0E0EE0FFF1FEA5AFD4FE2
:100F8000A591B4919FB7F8948C91611103C010950D
:100F9000812301C0812B8C939FBF0F90DF91CF9154
:100FA0001F910F910895CF93DF93282F30E0F9011F
:100FB000E659FE4F8491F901E055FE4FD491F901B5
:100FC000EA50FE4FC491CC2391F081110E94140786
:100FD000EC2FF0E0EE0FFF1FE45CFD4FA591B49104
:100FE0002C912D2381E090E021F480E002C080E08C
:100FF00090E0DF91CF9108950F931F93CF93DF93EC
:10100000EC010E945D06688779878A879B87E88163
:10101000F9810680F781E02DCE01199597FF15C063
:101020000E945D06088519852A853B85601B710B2A
:10103000820B930B0C811D812E813F8160177107FC
:101040008207930720F38FEF9FEFDF91CF911F91DE
:101050000F9108950F931F93CF93DF93EC018B01B2
:1010600063E272E00E94BB0AC8010E94FC0797FD80
:1010700005C0682FCE010E94650BF6CFCE01DF912F
:10108000CF911F910F910895CF92DF92EF92FF922F
:101090000F931F93CF93DF936C017A01EB01E60E60
:1010A000F71E00E010E0CE15DF0561F06991D60172
:1010B000ED91FC910190F081E02DC6011995080F8A
:1010C000191FF1CFC801DF91CF911F910F91FF90B0
:1010D000EF90DF90CF9008956115710581F0DB01ED
:1010E0000D900020E9F7AD0141505109461B570B07
:1010F000DC01ED91FC910280F381E02D199480E0F8
:1011000090E00895AF92BF92CF92DF92EF92FF925C
:101110000F931F93CF93DF937C016B01C0E0D0E06E
:1011200000E010E0D60114968D919C911597C81798
:10113000D90788F4D701ED91FC91A080B180BE0160
:10114000C6010E94C50B682FC701F5011995080F4C
:10115000191F2196E7CFC801DF91CF911F910F9101
:10116000FF90EF90DF90CF90BF90AF900895DC019B
:10117000ED91FC910190F081E02D19940F931F9354
:10118000CF93DF93EC016DE00E94B7088C016AE019
:10119000CE010E94B708800F911FDF91CF911F9160
:1011A0000F9108950F931F93CF93DF93EC010E944B
:1011B00082088C01CE010E94BE08800F911FDF9132
:1011C000CF911F910F9108950F931F93CF93DF93AA
:1011D000EC010E946C088C01CE010E94BE08800FB9
:1011E000911FDF91CF911F910F9108958F929F9240
:1011F000AF92BF92CF92DF92EF92FF920F931F9325
:10120000CF93DF93CDB7DEB7A1970FB6F894DEBFCB
:101210000FBECDBF7C01C42EE52FCB01D22E19A26B
:1012200021E02D1510F02AE0D22E8E010F5D1F4F08
:101230008D2C912CA12CB12C6C2D7E2FA50194010D
:101240000E94AC128C2DD29E8019112401501109DC
:101250008A3014F4805D01C0895CF8018083211517
:1012600031054105510521F0C22EE32FCA01E4CF1B
:10127000B801C7010E946C08A1960FB6F894DEBFB2
:101280000FBECDBFDF91CF911F910F91FF90EF90D7
:10129000DF90CF90BF90AF909F908F900895CF92A6
:1012A000DF92EF92FF920F931F93CF93DF93EC01A6
:1012B0006A017B012115310579F4E881F9810190FA
:1012C000F081E02D642FDF91CF911F910F91FF905E
:1012D000EF90DF90CF9019942A303105E9F477FF31
:1012E0001AC06DE20E94B7088C0144275527BA0145
:1012F0004C195D096E097F092AE0CE010E94F608AB
:10130000800F911FDF91CF911F910F91FF90EF9070
:10131000DF90CF9008952AE0B701A601CE01DF91BA
:10132000CF911F910F91FF90EF90DF90CF900C9491
:10133000F6080F931F93CF93DF93EC019A01AB0153
:10134000662757FD6095762F0E944F098C01CE01CC
:101350000E94BE08800F911FDF91CF911F910F91C6
:101360000895009729F0BC0180E090E00C9463138D
:101370000895CF93DF9300D01F92CDB7DEB79B01C6
:10138000AC01611571058105910569F069833A83A6
:101390004B835C830E945F1329813A814B815C817E
:1013A0000E94CE1203C060E070E0CB010F900F905E
:1013B0000F900F90DF91CF910895CF92DF92EF922F
:1013C000FF926B017C01621773078407950764F431
:1013D000CA01B9016C197D098E099F090E94B909DA
:1013E0006C0D7D1D8E1D9F1DFF90EF90DF90CF90A7
:1013F00008954F925F926F927F92AF92BF92CF9279
:10140000DF92EF92FF920F931F93CF93DF93CDB7AD
:10141000DEB729013A01621B730B840B950B2A89F5
:101420003B894C895D892A193B094C095D092A8B46
:101430003B8B4C8B5D8B9B01AC016A897B898C89D2
:101440009D890E949012E418F50806091709A80161
:1014500097010E94CE122A0D3B1D4C1D5D1DCA0135
:10146000B901DF91CF911F910F91FF90EF90DF9025
:10147000CF90BF90AF907F906F905F904F90089506
:101480000E94B2060E947A01CCEADDE00E94A4012B
:101490002097E1F30E94AC0DF9CFFC01808191818E
:1014A0000C941811CF93DF93EC01888199810097F8
:1014B00011F00E941811198218821D821C821B8251
:1014C0001A82DF91CF9108950F931F93CF93DF93EB
:1014D000EC018B016F5F7F4F888199810E94A7117A
:1014E000009731F0998388831B830A8381E001C0D0
:1014F00080E0DF91CF911F910F910895CF93DF93FB
:10150000EC0188819981892B29F08A819B8186173A
:10151000970760F4CE010E94640A882341F08C8111
:101520009D81892B19F4E881F981108281E0DF9196
:10153000CF910895EF92FF920F931F93CF93DF9374
:10154000EC017B018A01BA010E947E0A811104C06C
:10155000CE010E94520A07C01D830C83B701888107
:1015600099810E94A513CE01DF91CF911F910F9118
:10157000FF90EF900895FC01118210821382128275
:101580001582148216826115710559F0FB010190D4
:101590000020E9F7AF0141505109461B570B0C944D
:1015A0009A0A0895CF93DF93EC01FB018617970702
:1015B00061F0608171816115710529F04481558167
:1015C0000E949A0A02C00E94520ACE01DF91CF9176
:1015D0000895FC01118210821382128215821482F6
:1015E00016820C94D20ACF93DF93EC01611571053A
:1015F00061F0FB0101900020E9F7AF014150510972
:10160000461B570B0E949A0A02C00E94520ACE0142
:10161000DF91CF9108950F931F93CF93DF93CDB7B1
:10162000DEB7A2970FB6F894DEBF0FBECDBF8C0118
:10163000CB01BA01F8011182108213821282158245
:101640001482168230E0AE014F5F5F4F0E94AC13F0
:10165000BE016F5F7F4FC8010E94F30AA2960FB6CA
:10166000F894DEBF0FBECDBFDF91CF911F910F91D8
:101670000895EF92FF920F931F93CF93DF93EC01A6
:101680007B010C811D816115710511F480E016C08C
:101690004115510591F0040F151FB8010E947E0AF3
:1016A0008823A1F3288139818C819D81B701820F24
:1016B000931F0E94A5131D830C8381E0DF91CF91BE
:1016C0001F910F91FF90EF900895CF93DF931F929A
:1016D0001F92CDB7DEB769831A8241E050E0BE01A8
:1016E0006F5F7F4F0E94390B0F900F90DF91CF916A
:1016F0000895CF93DF93EC01FB0144815581608114
:1017000071810E94390B811103C0CE010E94520ADF
:10171000CE01DF91CF910895CF93DF93EC01611556
:10172000710569F0FB0101900020E9F7AF0141501C
:101730005109461B570B0E94390B811103C0CE0182
:101740000E94520ACE01DF91CF910895FC012481BD
:101750003581232B31F421E061157105A1F0FB01E6
:1017600008C0FC01808191816115710531F421E08F
:10177000FC018081882339F005C00E949C1321E080
:10178000892B09F020E0822F0895FC012481358106
:101790006217730748F480819181009729F0FC015A
:1017A000E60FF71F8081089580E00895BF92CF92E1
:1017B000DF92EF92FF920F931F93CF93DF936C0111
:1017C0007B01EA0189012417350720F48D2FE901F7
:1017D000042F182F63E272E0C6010E94BB0AD701F2
:1017E00014968D919C9115978C179D07C8F08017C2
:1017F000910708F48C01D701ED91FC911197E00F4E
:10180000F11FB08010826D917C916C0F7D1FC6011D
:101810000E94F30AD701ED91FC91E00FF11FB08215
:10182000C601DF91CF911F910F91FF90EF90DF9054
:10183000CF90BF900895CF93DF93EC01FB012481FB
:1018400035810E94D60BCE01DF91CF910895FC0126
:1018500080819181009711F00C946C1360E070E02E
:10186000CB010895FC0124853585F901E05CFF4F2B
:1018700080819181329620813181821B930B8F73FD
:1018800099270895FC0184859585FC01E05CFF4F54
:10189000408151813296208131814217530741F0B6
:1018A0000190F081E02DE80FF91F808190E008950C
:1018B0008FEF9FEF0895FC0184859585FC01E05C26
:1018C000FF4F408151813296208131814217530769
:1018D00079F0A081B181A80FB91F8C91208131814D
:1018E0002F5F3F4F2F7333273183208390E008957C
:1018F0008FEF9FEF0895FC0181A1882329F0A4892F
:10190000B5898C9186FFFBCF11A20895CF93DF9309
:10191000FC0126853785D901A05CBF4F8D919C9134
:10192000119701968F739927E901CE5BDF4F4881AC
:10193000598184179507D9F30D90BC91A02DA20F62
:10194000B31F6C93A685B785A05CBF4F11969C937F
:101950008E93A689B7892C9181E090E0078C02C014
:10196000880F991F0A94E2F7282B2C9381E081A31A
:101970000488F589E02D80818064808381E090E097
:10198000DF91CF910895FB01E05CFF4F2081318111
:101990002F5F3F4F2F733327DB01AE5BBF4F4D915E
:1019A0005C912417350739F0A081B181A60FB71FCC
:1019B0008C9331832083089508951F920F920FB660
:1019C0000F9211240BB60F922F933F934F935F9377
:1019D0006F937F938F939F93AF93BF93EF93FF93F7
:1019E0008091C00082FD07C08091C6006FE375E062
:1019F0000E94C30C02C08091C600FF91EF91BF917D
:101A0000AF919F918F917F916F915F914F913F9196
:101A10002F910F900BBE0F900FBE0F901F90189537
:101A200008951F920F920FB60F9211240BB60F92CA
:101A30002F933F934F935F936F937F938F939F93D6
:101A4000AF93BF93EF93FF938091C80082FD07C0CF
:101A50008091CE0067EB74E00E94C30C02C08091BD
:101A6000CE00FF91EF91BF91AF919F918F917F91A8
:101A70006F915F914F913F912F910F900BBE0F90FF
:101A80000FBE0F901F90189508951F920F920FB6DA
:101A90000F9211240BB60F922F933F934F935F93A6
:101AA0006F937F938F939F93AF93BF93EF93FF9326
:101AB0008091D00082FD07C08091D6006FE274E073
:101AC0000E94C30C02C08091D600FF91EF91BF919C
:101AD000AF919F918F917F916F915F914F913F91C6
:101AE0002F910F900BBE0F900FBE0F901F90189567
:101AF00008951F920F920FB60F9211240BB60F92FA
:101B00002F933F934F935F936F937F938F939F9305
:101B1000AF93BF93EF93FF938091300182FD07C095
:101B20008091360167EA73E00E94C30C02C0809185
:101B30003601FF91EF91BF91AF919F918F917F916E
:101B40006F915F914F913F912F910F900BBE0F902E
:101B50000FBE0F901F90189581E493E00E94320C05
:101B6000892B11F00E94DC0C8FE193E00E94320C73
:101B7000892B11F00E94100D8DEF92E00E94320C23
:101B8000892B11F00E94440D8BED92E00E94320CE3
:101B9000892B11F00C94780D08951F920F920FB6B7
:101BA0000F9211240BB60F922F933F938F939F9315
:101BB000EF93FF9320913B0530913C0580913D05CB
:101BC00090913E052817390731F48091C1008F7D2F
:101BD0008093C10014C0E0913D05F0913E05E550B1
:101BE000FB4F208180913D0590913E0501968F73BA
:101BF000992790933E0580933D052093C600FF9161
:101C0000EF919F918F913F912F910F900BBE0F906D
:101C10000FBE0F901F9018951F920F920FB60F9244
:101C200011240BB60F922F933F938F939F93EF93B3
:101C3000FF932091B3043091B4048091B504909146
:101C4000B6042817390731F48091C9008F7D80933D
:101C5000C90014C0E091B504F091B604ED58FB4FF3
:101C600020818091B5049091B60401968F739927D5
:101C70009093B6048093B5042093CE00FF91EF912A
:101C80009F918F913F912F910F900BBE0F900FBEA0
:101C90000F901F9018951F920F920FB60F9211245C
:101CA0000BB60F922F933F938F939F93EF93FF93D6
:101CB00020912B0430912C0480912D0490912E04BE
:101CC0002817390731F48091D1008F7D8093D1009E
:101CD00014C0E0912D04F0912E04E551FC4F2081B9
:101CE00080912D0490912E0401968F7399279093E3
:101CF0002E0480932D042093D600FF91EF919F91A5
:101D00008F913F912F910F900BBE0F900FBE0F90B0
:101D10001F9018951F920F920FB60F9211240BB6B9
:101D20000F922F933F938F939F93EF93FF93209165
:101D3000A3033091A4038091A5039091A6032817D3
:101D4000390731F4809131018F7D8093310114C0C6
:101D5000E091A503F091A603ED59FC4F20818091FD
:101D6000A5039091A60301968F7399279093A603DC
:101D70008093A50320933601FF91EF919F918F915E
:101D80003F912F910F900BBE0F900FBE0F901F90A1
:101D90001895CF92DF92EF92FF92CF93DF93EC01F1
:101DA0006A017B01411581EE580761057105F9F063
:101DB000EC89FD8981E090E008A002C0880F991F9E
:101DC0000A94E2F7808360E079E08DE390E0A70178
:101DD00096010E94AC1221503109410951095695D2
:101DE000479537952795211580E1380798F0EC89BC
:101DF000FD89108260E874E88EE190E0A701960109
:101E00000E94AC122150310941095109569547955C
:101E100037952795E889F9893083EA89FB892083FA
:101E200019A2EE89FF89408181E090E09C010C8C31
:101E300002C0220F331F0A94E2F7422B4083EE893F
:101E4000FF8940819C010D8C02C0220F331F0A9430
:101E5000E2F7422B4083EE89FF8940819C010E8C82
:101E600002C0220F331F0A94E2F7422B4083EE890F
:101E7000FF8920810F8C02C0880F991F0A94E2F716
:101E8000809582238083DF91CF91FF90EF90DF9048
:101E9000CF900895CF93109244031092430388EE9D
:101EA00093E0A0E0B0E08093450390934603A093B5
:101EB0004703B09348032EE232E03093420320936D
:101EC00041034FE355E050934E0340934D034BEFD6
:101ED00054E05093500340934F0345EC50E050932F
:101EE00052034093510344EC50E050935403409309
:101EF000530340EC50E0509356034093550341EC9C
:101F000050E0509358034093570342EC50E05093F5
:101F10005A034093590346EC50E050935C034093BE
:101F20005B03C4E0C0935D03F3E0F0935E03E7E07E
:101F3000E0935F0375E07093600361E06093610379
:101F40001092220310922103809323039093240381
:101F5000A0932503B09326033093200320931F03FF
:101F600047EB54E050932C0340932B0343E754E09A
:101F700050932E0340932D034DEC50E050933003CB
:101F800040932F034CEC50E05093320340933103C5
:101F900048EC50E0509334034093330349EC50E055
:101FA00050933603409335034AEC50E05093380386
:101FB000409337034EEC50E050933A03409339037B
:101FC000C0933B03F0933C03E0933D0370933E03C7
:101FD00060933F03109200031092FF02809301036D
:101FE00090930203A0930303B09304033093FE0283
:101FF0002093FD024FE254E050930A0340930903FB
:102000004BEE53E050930C0340930B0345ED50E02F
:1020100050930E0340930D0344ED50E05093100392
:1020200040930F0340ED50E050931203409311038F
:1020300041ED50E0509314034093130342ED50E000
:10204000509316034093150346ED50E05093180348
:1020500040931703C0931903F0931A03E0931B03F3
:1020600070931C0360931D031092DE021092DD0238
:102070008093DF029093E002A093E102B093E2022A
:102080003093DC022093DB0287EA93E09093E8022E
:102090008093E70283E693E09093EA028093E9025B
:1020A00085E391E09093EC028093EB0284E391E06E
:1020B0009093EE028093ED0280E391E09093F00222
:1020C0008093EF0281E391E09093F2028093F1021A
:1020D00082E391E09093F4028093F30286E391E02F
:1020E0009093F6028093F502C093F702F093F80202
:1020F000E093F9027093FA026093FB02CF91089586
:10210000CF93DF938230910510F482E090E0E0916C
:102110008505F091860520E030E0A0E0B0E0309742
:1021200039F14081518148175907B8F048175907CC
:1021300071F482819381109729F013969C938E936A
:1021400012972CC0909386058093850527C0211592
:10215000310531F04217530718F0A901DB0101C026
:10216000EF019A01BD01DF010280F381E02DD7CF9D
:1021700021153105F9F0281B390B2430310580F485
:102180008A819B816115710521F0FB019383828314
:1021900004C09093860580938505FE01329644C065
:1021A000FE01E20FF31F819391932250310939838D
:1021B00028833AC02091830530918405232B41F474
:1021C0002091060230910702309384052093830505
:1021D00020910402309105022115310541F42DB7FB
:1021E0003EB74091080250910902241B350BE09143
:1021F0008305F0918405E217F307A0F42E1B3F0B33
:102200002817390778F0AC014E5F5F4F2417350768
:1022100048F04E0F5F1F50938405409383058193D0
:10222000919302C0E0E0F0E0CF01DF91CF910895FB
:10223000CF93DF93009709F487C0FC013297138294
:102240001282C0918505D0918605209781F4208166
:102250003181280F391F8091830590918405821761
:10226000930779F5F0938405E09383056DC0DE0153
:1022700020E030E0AE17BF0750F412964D915C910C
:1022800013979D014115510509F1DA01F3CFB3838D
:10229000A28340815181840F951F8A179B0771F497
:1022A0008D919C911197840F951F02969183808345
:1022B00012968D919C9113979383828321153105FA
:1022C00029F4F0938605E09385053EC0D901139665
:1022D000FC93EE9312974D915D91A40FB51FEA17F1
:1022E000FB0779F480819181840F951F0296D901B3
:1022F00011969C938E938281938113969C938E93D7
:102300001297E0E0F0E08A819B81009719F0FE01CE
:10231000EC01F9CFCE01029628813981820F931FFB
:1023200020918305309184052817390769F4309787
:1023300029F4109286051092850502C0138212823C
:10234000D0938405C0938305DF91CF9108956F9258
:102350007F928F929F92AF92BF92CF92DF92EF9235
:10236000FF920F931F93CF93DF93EC01CB01209744
:1023700081F4DF91CF911F910F91FF90EF90DF904B
:10238000CF90BF90AF909F908F907F906F900C9464
:102390008010FE01E60FF71F9E0122503109E2175F
:1023A000F30708F4ACC0D9010D911C9111970617E1
:1023B0001707B8F00530110508F49FC0A801445074
:1023C00051094617570708F498C002501109061B17
:1023D000170B019311936D937C93CF010E941811F9
:1023E0008CC05B01A01AB10A4E01800E911EA09113
:1023F0008505B0918605612C712C60E070E0109726
:1024000009F449C0A815B905C9F5ED90FC901197DC
:10241000670142E0C40ED11CCA14DB0478F1470105
:102420008A189B08640142E0C40ED11C1296BC902D
:1024300012971396AC91B5E0CB16D10440F0B2825E
:10244000A38391828082D9018D939C9309C00E5FF2
:102450001F4F0E0D1F1DF90111830083EB2DFA2F65
:102460006115710531F0DB011396FC93EE93129721
:1024700044C0F0938605E09385053FC06D917C9143
:1024800011976616770608F43B01BD0112960D9070
:10249000BC91A02DB4CF609183057091840568151F
:1024A0007905E9F468167906D0F440910402509158
:1024B00005024115510541F44DB75EB76091080220
:1024C00070910902461B570BE417F507C0F4F0930F
:1024D0008405E0938305F901918380830EC00E94F7
:1024E00080107C01009759F0A801BE010E9493134F
:1024F000CE010E941811C70104C0CE0102C080E0C5
:1025000090E0DF91CF911F910F91FF90EF90DF90BE
:10251000CF90BF90AF909F908F907F906F900895D5
:10252000DB018F939F930E94F312BF91AF91A29F03
:10253000800D911DA39F900DB29F900D11240895C1
:10254000991B79E004C0991F961708F0961B881F05
:102550007A95C9F780950895A1E21A2EAA1BBB1B94
:10256000FD010DC0AA1FBB1FEE1FFF1FA217B3075F
:10257000E407F50720F0A21BB30BE40BF50B661F75
:10258000771F881F991F1A9469F760957095809539
:1025900090959B01AC01BD01CF010895052E97FBDD
:1025A0001EF400940E94E51257FD07D00E94AC1261
:1025B00007FC03D04EF40C94E512509540953095ED
:1025C00021953F4F4F4F5F4F08959095809570959F
:1025D00061957F4F8F4F9F4F0895EE0FFF1F05901E
:1025E000F491E02D19940E940213A59F900DB49FC1
:1025F000900DA49F800D911D112408950790F691D0
:10260000E02D1994A29FB001B39FC001A39F700D4C
:10261000811D1124911DB29F700D811D1124911DEA
:1026200008958F929F92AF92BF92CF92DF92EF92D6
:10263000FF92CF93DF93EC01688179818A819B813E
:10264000611571058105910521F464E279ED8BE551
:1026500097E02DE133EF41E050E00E94CE124901B6
:102660005A019B01AC01A7EAB1E40E94F3126B018D
:102670007C01ACEEB4EFA50194010E941014C60ECB
:10268000D71EE81EF91EF7FE06C081E0C81AD10861
:10269000E10880E8F80AC882D982EA82FB82C70191
:1026A000B6019F77DF91CF91FF90EF90DF90CF90B1
:1026B000BF90AF909F908F9008950C94111380E07D
:1026C00092E00C94111360930002709301028093C6
:1026D00002029093030208951F93FC019927882713
:1026E000BC01E89411911032E9F3193010F01E305A
:1026F000C8F31B3251F01D3249F4689406C00E94A1
:10270000C613610F711D811D911D119110531A3057
:10271000B0F33EF490958095709561957F4F8F4F03
:102720009F4F1F910895FB01DC0102C001900D92A3
:1027300041505040D8F70895FB01DC018D91019084
:1027400080190110D9F3990B0895FB01DC01019068
:102750000D920020E1F708952532310520F4223052
:1027600010F00C94B713FA011082CA010895BB2728
:102770002A3051F4992342F4BDE2909580957095EA
:1027800061957F4F8F4F9F4F0C94DC13592F482F2B
:10279000372F262F660F771F881F991F660F771F09
:1027A000881F991F620F731F841F951F660F771F65
:1027B000881F991F0895BB27FA01A62F621771057C
:1027C00081059105330B30FB66F0AA27660F771F52
:1027D000881F991FAA1FA21710F0A21B63953850DB
:1027E000A9F7A05DAA3308F0A95DA19336F7B1114E
:1027F000B1931082CA010C94FD13DC01FC01672F18
:1028000071917723E1F7329704C07C916D937083C7
:102810006291AE17BF07C8F30895B7FF0C94F31287
:0E2820000E94F312821B930B0895F894FFCFD1
:10282E00010000000000870580003030310030319B
:10283E003000303131003130300031303100640041
:10284E0073002C0030784646460000000000860CCF
:0A285E004408320C5B0C420C7B0CAA
:00000001FF
